:100000000020002095750000C1750000C17500003A
:10001000C1750000C1750000C1750000C175000008
:10002000C1750000C1750000C1750000C1750000F8
:10003000C1750000C1750000C1750000D1670000E6
:10004000C1750000D96C0000C1750000C1750000C9
:10005000C1750000C1750000716C0000C175000021
:10006000C1750000C1750000C1750000C1750000B8
:1000700035730000C1750000C1750000C175000036
:10008000C1750000C1750000C1750000C175000098
:10009000C175000010B5064C2378002B07D1054B25
:1000A000002B02D0044800E000BF0123237010BDE4
:1000B0009C0100200000000018ED000008B5084B6E
:1000C000002B03D00748084900E000BF0748036839
:1000D000002B00D108BD064B002BFBD09847F9E759
:1000E0000000000018ED0000A00100209801002091
:1000F00000000000164B002B00D1144B9D464022FF
:1001000092029A1A924600218B460F461348144ACF
:10011000121A0DF05EFA0F4B002B00D098470E4BD1
:10012000002B00D098470020002104000D000D484E
:10013000002802D00C4800E000BF0DF01BFA2000A0
:10014000290001F0ABFC0DF0FFF9C04600000800EB
:100150000020002000000000000000009C010020A2
:100160007C0C0020000000000000000080B582B080
:1001700000AF786039603B681A787B681A707B68DA
:1001800001333A6852781A707B6802333A68927881
:100190001A707B6803333A68D2781A707B6804332C
:1001A0003A6812791A707B6805333A6852791A7086
:1001B0007B6806333A6892791A707B6807333A682D
:1001C000D2791A707B6808333A68127A1A707B68A1
:1001D00009333A68527A1A707B680A333A68927A1D
:1001E0001A707B680B333A68D27A1A707B680C33CA
:1001F0003A68127B1A707B680D333A68527B1A702A
:100200007B680E333A68927B1A707B680F333A68CA
:10021000D27B1A70BD4602B080BDC04680B584B0A6
:1002200000AFF860B960FB1D1A7007E0FB685A1C4C
:10023000FA60BA68511CB96012781A70FB1D1B78FD
:10024000FA1D591E1170002BF0D1BD4604B080BDBF
:1002500080B582B000AF786039607B681A783B68FF
:100260001B785340DAB27B681A707B6801337A6876
:10027000013211783A68013212784A40D2B21A70CB
:100280007B6802337A68023211783A680232127857
:100290004A40D2B21A707B6803337A68033211780D
:1002A0003A68033212784A40D2B21A707B6804333B
:1002B0007A68043211783A68043212784A40D2B22D
:1002C0001A707B6805337A68053211783A6805320E
:1002D00012784A40D2B21A707B6806337A680632C6
:1002E00011783A68063212784A40D2B21A707B68A6
:1002F00007337A68073211783A68073212784A4031
:10030000D2B21A707B6808337A68083211783A687A
:10031000083212784A40D2B21A707B6809337A6880
:10032000093211783A68093212784A40D2B21A700A
:100330007B680A337A680A3211783A680A3212788E
:100340004A40D2B21A707B680B337A680B3211784C
:100350003A680B3212784A40D2B21A707B680C337A
:100360007A680C3211783A680C3212784A40D2B26C
:100370001A707B680D337A680D3211783A680D3245
:1003800012784A40D2B21A707B680E337A680E3205
:1003900011783A680E3212784A40D2B21A707B68ED
:1003A0000F337A680F3211783A680F3212784A4068
:1003B000D2B21A70BD4602B080BDC04680B584B0CE
:1003C00000AFF860B9607A60BB681A787B681B7808
:1003D0005340DAB2FB681A70FB680133BA68013225
:1003E00011787A68013212784A40D2B21A70FB68EA
:1003F0000233BA68023211787A68023212784A40BF
:10040000D2B21A70FB680333BA68033211787A6883
:10041000033212784A40D2B21A70FB680433BA68C9
:10042000043211787A68043212784A40D2B21A70D3
:10043000FB680533BA68053211787A68053212789C
:100440004A40D2B21A70FB680633BA680632117895
:100450007A68063212784A40D2B21A70FB680733C3
:10046000BA68073211787A68073212784A40D2B2F5
:100470001A70FB680833BA68083211787A68083253
:1004800012784A40D2B21A70FB680933BA6809324E
:1004900011787A68093212784A40D2B21A70FB6831
:1004A0000A33BA680A3211787A680A3212784A40F6
:1004B000D2B21A70FB680B33BA680B3211787A68C3
:1004C0000B3212784A40D2B21A70FB680C33BA6809
:1004D0000C3211787A680C3212784A40D2B21A7013
:1004E000FB680D33BA680D3211787A680D321278D4
:1004F0004A40D2B21A70FB680E33BA680E321178D5
:100500007A680E3212784A40D2B21A70FB680F3302
:10051000BA680F3211787A680F3212784A40D2B234
:100520001A70BD4604B080BD80B582B000AF78605F
:1005300039607A683B68101C191CFFF789FEBD46BC
:1005400002B080BD80B584B000AF78607B681B7856
:100550001A1C4F4B9A5C7B681A707B6804337A686C
:1005600004321278111C4A4A525C1A707B680833B4
:100570007A6808321278111C454A525C1A707B68FE
:100580000C337A680C321278111C414A525C1A7092
:100590000F23FB187A6852781A707B6801337A68E7
:1005A00005321278111C3A4A525C1A707B68053386
:1005B0007A6809321278111C354A525C1A707B68CD
:1005C00009337A680D321278111C314A525C1A7064
:1005D0007B680D330F22BA1812782D498A5C1A7085
:1005E0000F23FB187A6892781A707B6802337A6856
:1005F0000A321278111C264A525C1A707B680A3340
:100600000F22BA18127822498A5C1A700F23FB183D
:100610007A6892791A707B6806337A680E3212789B
:10062000111C1B4A525C1A707B680E330F22BA18D9
:10063000127817498A5C1A700F23FB187A68D27BEC
:100640001A707B680F337A680B321278111C104ACB
:10065000525C1A707B680B337A6807321278111C6F
:100660000B4A525C1A707B6807337A68033212783F
:10067000111C074A525C1A707B6803330F22BA18A8
:10068000127803498A5C1A70BD4604B080BDC0462A
:100690007CE4000080B586B000AF78600823FA18CB
:1006A0007B68101C191CFFF761FD0823FB181B78E1
:1006B0001A1CFE4B9A5C0823FB185B79191CFC4B37
:1006C0005B5C5340DAB20823FB189B7A191CF94B88
:1006D0005B5C5340DAB20823FB18DB7B191CF54B3B
:1006E0005B5C5340DAB27B681A707B680133082286
:1006F000BA181278111CEF4A515C0822BA185279C4
:10070000101CEA4A125C4A40D1B20822BA18927A06
:10071000101CE74A125C4A40D1B20822BA18D27BB8
:10072000101CE44A125C4A40D2B21A707B68023351
:100730000822BA181278111CDE4A515C0822BA1835
:100740005279101CDB4A125C4A40D1B20822BA1816
:10075000927A101CD54A125C4A40D1B20822BA18CB
:10076000D27B101CD24A125C4A40D2B21A707B680B
:1007700003330822BA181278111CCD4A515C0822A2
:10078000BA185279101CCB4A125C4A40D1B20822E6
:10079000BA18927A101CC74A125C4A40D1B2082299
:1007A000BA18D27B101CC14A125C4A40D2B21A70ED
:1007B0007B6804330822BA181279111CBB4A515CB9
:1007C0000822BA18527A101CB94A125C4A40D1B2B7
:1007D0000822BA18927B101CB64A125C4A40D1B269
:1007E0000822BA18D278101CB24A125C4A40D2B21F
:1007F0001A707B6805330822BA181279111CAD4AA9
:10080000515C0822BA18527A101CA84A125C4A405D
:10081000D1B20822BA18927B101CA54A125C4A4039
:10082000D1B20822BA18D278101CA24A125C4A40EF
:10083000D2B21A707B6806330822BA181279111CDA
:100840009C4A515C0822BA18527A101C994A125CD0
:100850004A40D1B20822BA18927B101C934A125C0B
:100860004A40D1B20822BA18D278101C904A125CC1
:100870004A40D2B21A707B6807330822BA1812793C
:10088000111C8B4A515C0822BA18527A101C894AF2
:10089000125C4A40D1B20822BA18927B101C854AD9
:1008A000125C4A40D1B20822BA18D278101C7F4A92
:1008B000125C4A40D2B21A707B6808330822BA1818
:1008C000127A111C794A515C0822BA18527B101C0A
:1008D000774A125C4A40D1B20822BA189278101CAA
:1008E000744A125C4A40D1B20822BA18D279101C5C
:1008F000704A125C4A40D2B21A707B6809330822EF
:10090000BA18127A111C6B4A515C0822BA18527B31
:10091000101C664A125C4A40D1B20822BA1892787A
:10092000101C634A125C4A40D1B20822BA18D2792C
:10093000101C604A125C4A40D2B21A707B680A33BB
:100940000822BA18127A111C5A4A515C0822BA18A5
:10095000527B101C574A125C4A40D1B20822BA1886
:100960009278101C514A125C4A40D1B20822BA183F
:10097000D279101C4E4A125C4A40D2B21A707B687F
:100980000B330822BA18127A111C494A515C08220A
:10099000BA18527B101C474A125C4A40D1B2082256
:1009A000BA189278101C434A125C4A40D1B208220D
:1009B000BA18D279101C3D4A125C4A40D2B21A7061
:1009C0007B680C330822BA18127B111C374A515C21
:1009D0000822BA185278101C354A125C4A40D1B22B
:1009E0000822BA189279101C324A125C4A40D1B2DD
:1009F0000822BA18D27A101C2E4A125C4A40D2B28F
:100A00001A707B680D330822BA18127B111C294A10
:100A1000515C0822BA185278101C244A125C4A40D1
:100A2000D1B20822BA189279101C214A125C4A40AD
:100A3000D1B20822BA18D27A101C1E4A125C4A405F
:100A4000D2B21A707B680E330822BA18127B111CBE
:100A5000184A515C0822BA185278101C154A125CC8
:100A60004A40D1B20822BA189279101C0F4A125C7F
:100A70004A40D1B20822BA18D27A101C0C4A125C31
:100A80004A40D2B21A707B680F330822BA18127B20
:100A9000111C074A515C0822BA185278101C054AEA
:100AA000125C4A40D1B20822BA1805E07CE5000089
:100AB0007CE600007CE400009279101C074A125C7E
:100AC0004A40D1B20822BA18D27A101C044A125CE9
:100AD0004A40D2B21A70BD4606B080BD7CE4000028
:100AE0007CE5000080B586B000AFF8607A600B232B
:100AF000FB180A1C1A700B23FB181B78182B09D043
:100B0000202B07D0102B05D07B68F02200219954B0
:100B1000FF2330E1C0467968FA680B23FB181B7885
:100B2000081C111C1A1CFFF779FB0B23FB181B7800
:100B30001C33DAB21123FB1892001A701123FB1830
:100B40001B781B09DBB2013BD9B27B68F0229954B8
:100B50001723FB180B22BA1812781A701623FB18E9
:100B600001221A70FDE01723FB181B781A1F1523AA
:100B7000FB1879688A5C1A701723FB181B78DA1E39
:100B80001423FB1879688A5C1A701723FB181B78EA
:100B90009A1E1323FB1879688A5C1A701723FB18B6
:100BA0001B785A1E1223FB1879688A5C1A70172367
:100BB000FA180B23FB1812781B78101C191C0AF06A
:100BC0002FFD0B1CDBB2002B45D11023FB18152287
:100BD000BA1812781A701423FB181B78684AD15C73
:100BE0001523FB181622BA1812784A401A701323DC
:100BF000FB181A781423FB1861498A5C1A701223B7
:100C0000FB181A781323FB185D498A5C1A701023AD
:100C1000FB181A781223FB1859498A5C1A7016239C
:100C2000FB181B785B00D9B21623FB181B78DB0975
:100C3000DBB21A1C131CDB189B181A1CD0001A1CE0
:100C4000031CD318DBB2DBB20A1C5340DAB2162302
:100C5000FB181A7032E00B23FB181B78182B2DD9C8
:100C60001723FA180B23FB1812781B78101C191C79
:100C70000AF0D6FC0B1CDBB2102B1FD11523FB187E
:100C80001A781523FB183E498A5C1A701423FB1846
:100C90001A781423FB183A498A5C1A701323FB183C
:100CA0001A781323FB1836498A5C1A701223FB1832
:100CB0001A781223FB1832498A5C1A701023FB1829
:100CC0001722B9180B22BA18097812788A1A1A70E2
:100CD0001723FB181B781022BA1812787968895CE0
:100CE0001522BA1812784A40D1B27A68D154172323
:100CF000FB181B7801331022BA1812780132796878
:100D0000895C1422BA1812784A40D1B27A68D15458
:100D10001723FB181B7802331022BA1812780232FC
:100D20007968895C1322BA1812784A40D1B27A687D
:100D3000D1541723FB181B7803331022BA181278EA
:100D400003327968895C1222BA1812784A40D1B20B
:100D50007A68D1541723FB181722BA181278043274
:100D60001A701723FA181123FB1812781B789A426D
:100D700000D2F8E60023181CBD4606B080BDC04670
:100D80007CE4000080B58AB000AFF860B9607A609A
:100D90007B68F0229B5C002B44D07B681422B9183E
:100DA000FA68081C111C1A1CFFF708FB2723FB1804
:100DB00001221A7018E01423FB18181CFFF76AFCB4
:100DC0002723FB181B781B011A1C7B689B18142215
:100DD000BA18101C191CFFF7A7FB2723FB182722A2
:100DE000BA18127801321A707B68F0229B5C2722B5
:100DF000BA1812789A42DED31423FB18181CFFF796
:100E0000A1FB2723FB181B781B011A1C7B689B186E
:100E1000B9681422BA18081C111C1A1CFFF7CEFA64
:100E2000002300E0FF23181CBD460AB080BDC04669
:100E300080B582B000AF78607B68F133181C002168
:100E4000102206F025FF7A688A235B000021D1502A
:100E50007B68181C0021F02206F01AFFBD4602B084
:100E600080BDC04680B582B000AF786039607B68D5
:100E70003A68101C10211A1CFFF734FEBD4602B060
:100E800080BDC04680B58CB000AFF860B9607A60B4
:100E9000FA688A235B00D358002B64D0FA688A234F
:100EA0005B00D3581022D31A7A68934200D9131CDE
:100EB0007B62FA688A235B00D3580133FF33FA68F8
:100EC000D318591C7B6A9BB2BA68081C111C1A1CE7
:100ED00006F0A4FEFA688A235B00D2587B6AD11818
:100EE000FA688A235B00D150FA688A235B00D358E2
:100EF0000F2B00D88AE07A687B6A9A4200D185E09D
:100F00000023FB6218E0FA68F021FB6AD3185B1833
:100F10005A78F86880235B00F96A4118CB185B782F
:100F20005340D8B2FA68F021FB6AD3185B18021C50
:100F30005A70FB6A0133FB62FB6A0F2BE3DDFB682F
:100F4000F133191CFB68F1331A1CFB68081C111CD7
:100F50001A1CFFF717FFBA687B6AD318BB607A6860
:100F60007B6AD31A7B603EE00023BB6215E0FA681F
:100F7000F021BB6AD3185B185A78BB6AB968CB18E2
:100F80001B785340D8B2FA68F021BB6AD3185B18BB
:100F9000021C5A70BB6A0133BB62BB6A0F2BE6DDD1
:100FA000FB68F1331422BA18101C191C102206F029
:100FB00035FEFB681422B9181422BA18081C111C3B
:100FC0001A1CFFF7DFFEFB68F1331A1C1423FB1811
:100FD000101C191C102206F021FEBB681033BB60E8
:100FE0007B68103B7B607B68102BBDD8FB68991C2D
:100FF000FF317B689BB2BA68081C111C1A1C06F0F2
:101000000DFEFA688A235B007968D150BD460CB0AA
:1010100080BDC04680B592B000AF786039601C23B7
:10102000FB18181C0021102206F032FE3B681C221F
:10103000B9181C22BA18081C111C1A1CFFF7A2FEB2
:101040001C23FB181B78DBB25BB2002B34DA0023C5
:101050007B641BE01C23FA187B6CD3181B785B00A5
:10106000D9B27B6C01331C22BA18D35CDB09DBB22A
:10107000DBB20A1C1343DBB2D9B21C23FA187B6C17
:10108000D3180A1C1A707B6C01337B647B6C0E2BAB
:10109000E0DD1C23FB18DB7BDB18DAB21C23FB181A
:1010A000DA731C23FB18DB7B792252425340DAB2FD
:1010B0001C23FB18DA7329E000233B641BE01C238C
:1010C000FA183B6CD3181B785B00D9B23B6C013328
:1010D0001C22BA18D35CDB09DBB2DBB20A1C134357
:1010E000DBB2D9B21C23FA183B6CD3180A1C1A7055
:1010F0003B6C01333B643B6C0E2BE0DD1C23FB1887
:10110000DB7BDB18DAB21C23FB18DA733A688A231C
:101110005B00D358102B1FD10023FB6318E0396804
:1011200080235B00FA6B8A18D3185A781C23F918AD
:10113000FB6BCB181B785340D8B2396880235B0017
:10114000FA6B8A18D318021C5A70FB6B0133FB63CD
:10115000FB6B0F2BE3DDAAE01C23FB181B78DBB233
:101160005BB2002B34DA0023BB631BE01C23FA18AC
:10117000BB6BD3181B785B00D9B2BB6B01331C224D
:10118000BA18D35CDB09DBB2DBB20A1C1343DBB257
:10119000D9B21C23FA18BB6BD3180A1C1A70BB6B8C
:1011A0000133BB63BB6B0E2BE0DD1C23FB18DB7B29
:1011B000DB18DAB21C23FB18DA731C23FB18DB7B69
:1011C000792252425340DAB21C23FB18DA7329E029
:1011D00000237B631BE01C23FA187B6BD3181B785E
:1011E0005B00D9B27B6B01331C22BA18D35CDB09DC
:1011F000DBB2DBB20A1C1343DBB2D9B21C23FA18F0
:101200007B6BD3180A1C1A707B6B01337B637B6B7F
:101210000E2BE0DD1C23FB18DB7BDB18DAB21C2372
:10122000FB18DA733A688A235B00D2583968802346
:101230005B008A18D31880225A700AE03A688A2321
:101240005B00D258396880235B008A18D3180022CB
:101250005A703A688A235B00D358591C3A688A232B
:101260005B00D1503A688A235B00D3580F2BE5D935
:1012700000233B6318E0396880235B003A6B8A18CF
:10128000D3185A781C23F9183B6BCB181B785340A2
:10129000D8B2396880235B003A6B8A18D318021CD5
:1012A0005A703B6B01333B633B6B0F2BE3DD002339
:1012B000FB6218E03A68F021FB6AD3185B185A7891
:1012C000386880235B00F96A4118CB185B7853407B
:1012D000D8B23A68F021FB6AD3185B18021C5A7026
:1012E000FB6A0133FB62FB6A0F2BE3DD3B68F133E2
:1012F0000C22BA18101C191C102206F08FFC3B6837
:101300000C22B9187A68081C111C1A1CFFF73AFD48
:101310001C23FB18181C0021102206F0B9FCBD4646
:1013200012B080BD80B582B000AF78607B68181CB9
:1013300006F026F8BD4602B080BDC04690B585B027
:1013400002AF78600C1C101C191CFB1C221C1A70AC
:10135000BB1C021C1A707B1C0A1C1A70FB1C1B781D
:101360005BB21B11DBB2DBB2062B10D87868FB1C1A
:1013700000215956BB1C1A787B1C1C781823FB18BB
:101380001B780093FB690193231C05F04DFBBD46C0
:1013900003B090BD80B584B000AFF860081C111C8C
:1013A0007B600B23FB18021C1A700A23FB180A1C13
:1013B0001A70FB681B785BB21B11DBB2DBB2062B29
:1013C00009D8F8680B23FB1819780A23FB181A7838
:1013D0007B6805F08FFBBD4604B080BD80B582B050
:1013E00000AF786039607B681B785BB21B11DBB2A1
:1013F000DBB2062B05D87A683B68101C191C05F077
:1014000001FCBD4602B080BD80B582B000AF7860FF
:1014100039607B6800221A607B6800225A607B6812
:1014200000221A727B683A68DA607B6800221A61CF
:10143000BD4602B080BDC04680B584B000AF7860C4
:101440000023FB600023BB6005F010F97B68002BD4
:1014500005D07B68181C00F0DBF9031E02D005F0F4
:1014600013F944E07B685A687B681A607B68002245
:101470001A72204B1B68002B07D17B681B687A68A7
:10148000101C191C00F0A2F82FE01A4B1B681B7AE5
:10149000002B14D000F0EAF9031CFB60154B1B680D
:1014A0001A68FB689A4203D2124B1B681B68FB60E8
:1014B000104B1B681A68FB68D31ABB6003E00D4B26
:1014C0001B681B68BB607B681A68BB689A4206D2BF
:1014D0007A68BB68101C191C00F078F805E07A687F
:1014E000BB68101C191C00F007F805F0CDF8BD46CC
:1014F00004B080BDBC01002080B586B000AF78602C
:10150000396000237B6100233B612F4B1B68FB602C
:101510002D4B1B681B69BB60BB68002B0CD17B6823
:101520001A683B68D21A7B681A60FB687A681A618D
:101530007B6800221A6144E03B687B61BB681A68E3
:101540003B68D3183B6139E07B681A683B699A4273
:1015500016D27B681A687B69D21A7B681A60BB68EE
:10156000002B06D0BB681A687B681B68D21ABB6860
:101570001A60FB687A681A617B68BA681A6120E0B1
:10158000BB68FB60BB681B69BB60BB68002B0ED1EE
:101590003B697B617B681A687B69D21A7B681A6039
:1015A000FB687A681A617B6800221A6109E03B696E
:1015B0007B61BB681B683A69D3183B61FB68002BF1
:1015C000C2D1BD4606B080BDBC01002080B584B04C
:1015D00000AF78603960104B1B68FB60FB68002B24
:1015E00008D07B681B683A68D21AFB681A60FB68EF
:1015F00000221A727B68FA681A617B6801221A72EB
:10160000054B7A681A60044B1B68181C00F04CF9F3
:10161000BD4604B080BDC046BC01002080B582B08C
:1016200000AF00237B60284B1B68002B00D148E0F3
:1016300000F01CF9031C7B60234B1B681A687B6855
:101640009A4204D8204B1B6800221A6007E01E4B08
:101650001B681D4A126811687A688A1A1A601A4B48
:101660001B6800221A720EE0174B1B683B60164B7A
:101670001B681A69144B1A603B68DB68002B02D0A8
:101680003B68DB689847104B1B68002B04D00E4B5F
:101690001B681B68002BE7D00B4B1B68002B10D07E
:1016A000094B1B681B7A01225340DBB2002B08D088
:1016B000054B1B6801221A72034B1B68181C00F0B3
:1016C000F3F8BD4602B080BDBC01002080B586B0F5
:1016D00000AF786004F0CAFF00237B610023BB6089
:1016E0004A4B1B683B61494B1B68FB60474B1B68BF
:1016F000002B02D07B68002B02D104F0C5FF81E0F3
:10170000424B1A687B689A4253D1404B1B681B7A44
:10171000002B34D000F0AAF8031C7B617B681A68A8
:101720007B699A4202D27B681B687B617B681A687E
:101730007B69D31ABB60354B1B681B69002B1AD021
:10174000324B1B6800221A72304B1B681A692F4BF0
:101750001A602E4B1B682D4A12681168BA688A18E5
:101760001A602A4B1B6801221A72284B1B68181C2E
:1017700000F09AF844E0254B00221A6040E0234B29
:101780001B681B69002B10D07B681B68BB601F4B5C
:101790001B681A691D4B1A601C4B1B681B4A126898
:1017A0001168BA688A181A602AE0184B00221A6079
:1017B00026E07B681B68BB601FE0FA687B689A4282
:1017C00016D1FB681B69002B0CD0FB681B69FB6002
:1017D0003B69FA681A61FB681A68BB68D218FB6833
:1017E0001A600DE00023FB603B69FA681A6107E0AC
:1017F000FB683B61FB681B69FB60FB68002BDCD16D
:1018000004F042FFBD4606B080BDC046BC010020CA
:1018100080B584B000AF78600A4B1B68FB6008E0BD
:10182000FA687B689A4201D1012306E0FB681B69D4
:10183000FB60FB68002BF3D10023181CBD4604B0ED
:1018400080BDC046BC01002080B582B000AF78608A
:1018500039607B68181CFFF739FF7B683A681A60AB
:101860007B683A685A60BD4602B080BD80B500AF63
:1018700005F006FD031C181CBD4680BD80B500AFF9
:1018800005F0C2FC031C181CBD4680BD80B582B0AB
:1018900000AF78607B68181C05F012FD031C181C53
:1018A000BD4602B080BDC04680B582B000AF786052
:1018B000094B00221A707B681B68181C05F07AFC23
:1018C000021C7B681A607B681B68181C05F0A0FB73
:1018D000BD4602B080BDC046B801002080B500AF53
:1018E000104B1B68002B1BD00E4B1B681B7A002B68
:1018F00016D00D4B1B78DBB2042B07D80A4B1B7894
:10190000DBB20133DAB2084B1A7009E0064B002251
:101910001A7004F069FF031E012B01D105F0F4FCDD
:10192000BD4680BDBC010020B801002080B584B058
:1019300000AF021CFB1D1A700023FB6009E0FB686E
:10194000D9B2074AFB68D3180A1C1A70FB68013326
:10195000FB60FB680F2BF2D9BD4604B080BDC046CA
:10196000C401002080B586B000AF3B1D1020191CBB
:1019700003F096FE031E10D00823FB1800221A70F5
:101980000823FB1800229A600823FB1800229A8182
:101990000823FB1805229A7313E00823FB18002282
:1019A0001A700823FB1802221A710823FB180C4A2C
:1019B0009A600823FB1810229A810823FB1805223D
:1019C0009A730823FB18181C04F0E0FA031E01D1D7
:1019D000002300E00123181CBD4606B080BDC046B0
:1019E000C401002090B585B000AF124B181CFFF762
:1019F0006DFE3B1C01221A700F23FC183B1C181CA7
:101A000003F0D6FE031C23700F23FB181B78002B5A
:101A10000DD13B1C1B79002B06D0074B02221A70FC
:101A2000064B01221A7002E0034B01221A70BD46D8
:101A300005B090BD08020020C00100202400002055
:101A400080B582B000AF7860024B01221A70BD46AB
:101A500002B080BD2400002080B582B000AF786065
:101A6000BD4602B080BDC04680B582B000AF786090
:101A70007B685B78002B06D17B681B78002B02D13A
:101A8000044B02221A70044B01221A70BD4602B0A8
:101A900080BDC046C00100202400002080B58EB06B
:101AA00000AF04F02DFE04F001FE764B00221A7008
:101AB000744B1B78012B6CD002DC002B07D0DFE0CD
:101AC000022B00D1AFE0032B00D1D6E0D8E01423E5
:101AD000FB186D4A1A601423FB186C4A5A601423D1
:101AE000FB186B4A9A601423FA181023FB18101C79
:101AF000191C03F0DDFC674A674B101C191CFFF72B
:101B000083FC3B1D02221A703B1D01221A713B1DF2
:101B1000181C03F01BFF3B1D07221A703B1D0122FE
:101B20001A713B1D181C03F011FF2023FB185B4AA0
:101B300003CA03C32023FB18032019685A6804F062
:101B40006DF82823FB18564A03CA03C32823FB1841
:101B5000042019685A6804F061F83023FB18514AD0
:101B600003CA03C33023FB18052019685A6804F020
:101B700055F83B1D0A221A703B1D4B4A043303CA19
:101B800003C33B1D181C03F0E1FE3E4B01221A70FB
:101B900076E0464B1B68002B0ED104F0DFFD031CE2
:101BA000181C06F017F8424B0020191C06F01EF80E
:101BB000031C1A1C3D4B1A603B1D03221A703B1D6F
:101BC00000225A603B1D181C03F0C0FE3B1D04227E
:101BD0001A70364B1A683B1D5A603B1D181C03F0E7
:101BE000B5FE3B1D05221A703B1D324A5A603B1D53
:101BF000181C03F0ABFE3B1D06221A703B1D2E4A3B
:101C00005A603B1D181C03F0A1FE3B1D01221A70F7
:101C10003B1D01221A713B1D181C03F097FE194B46
:101C200002221A702CE0254B1B78002B08D00220D2
:101C3000FFF77CFEFFF796FE031C1A1C1F4B1A7061
:101C40001F4AFA239B00101C191C05F0CFFF031C30
:101C50001C4A944663441A1C1B4B1A601A4B1B689F
:101C60000C4A101C191CFFF7EFFD0A4B181CFFF75C
:101C7000E3FB044B03221A7002E0FFF72FFEC0467D
:101C800016E7C046C0010020411A0000591A0000A2
:101C9000691A000008020020E51900007CE7000036
:101CA00084E700008CE7000094E70000200000209B
:101CB000FFFFFF0100000020100000202400002092
:101CC00018FCFFFF983A00000402002080B582B0A3
:101CD00000AFFFF7D3FD031C7B60444B1B78022B46
:101CE00003D0434BDB6A984701E001F08DF9414B8B
:101CF0001B78002B3BD0404B1B68404A101C191C22
:101D0000FFF7A2FD3D4B181CFFF796FB374B1B78E6
:101D1000022B0AD03A4B1B683A4A101C191CFFF7D9
:101D200093FD384B181CFFF787FB304B1B78022BB9
:101D300003D0354B1B78002B2DD0344AFA239B005F
:101D4000101C191C05F052FF031C1A1C2C4B1B689D
:101D5000D318FA22D200944663442D4A101C191C51
:101D6000FFF772FD2A4B181CFFF766FB13E0294BA7
:101D700000225A70284B03225A70284B1B78002BE4
:101D800004D1264B1A7801210A431A70234B1A7882
:101D900008210A431A70224B1B78224ADB00D31811
:101DA0005B79191C204A0B1C5B005B189B00D31845
:101DB0007A685A601D4B7A681A60194B1B78181C98
:101DC00002F068FD104B1B7801225340DBB2002B60
:101DD00008D0104B00225A70154B1B780133DAB231
:101DE000134B1A70BD4602B080BDC0465802002099
:101DF000A4E900002500002024060020FC050020A6
:101E000028060020100600207005002018FCFFFFA7
:101E10002C0600206406002078060020480A0020D6
:101E2000A505002064000020280000209C0500205B
:101E30009705002080B500AF154B1B6840221A4360
:101E4000134B1A60134B1B78002B01D001F038F9AB
:101E5000114B1B78002B05D1104B1B78022B01D1A5
:101E600001F0D2F80E4B1A7802210A431A700C4B7B
:101E70001A7808210A431A700A4B181C0121FFF72F
:101E8000E3FC084B181CFFF7D7FABD4680BDC046DF
:101E9000AC050020700500208406002058020020B8
:101EA000480A0020B005002090B59BB004AFF86050
:101EB0000C1C101C191C0A23FB18221C1A80082356
:101EC000FB18021C1A80FB1D0A1C1A705723FB18F2
:101ED00000221A703F23FB1800221A700023BB63F4
:101EE0003723FB1800221A703623FB18FF221A70C2
:101EF0003523FB1800221A700023BB6100233B63CB
:101F00002E23FB1800221A802C23FB1800221A8093
:101F10002A23FB1800221A8000233B650023FB6460
:101F2000DC4BBB64DC4B7B644323FB1800221A7040
:101F30004223FB1800221A70D84B00221A71D84B8A
:101F40000822BA181288DA81FB1D1A78D44B1A7449
:101F5000D44B1A78D24B5A74D14B0022DA70D04B42
:101F600000229A70CE4B00225A71CD4B00229A600B
:101F7000CB4B00221A73CA4B00225A73C84B002263
:101F80009A74C74B00225A61C54B00221A70C64B87
:101F90001B78022B02D0C54BDB6A9847C44B181C38
:101FA000FFF794FB3F23FB181B783F22BA18591CFC
:101FB00011701A1CFB689B181A782023FB181A70E2
:101FC0002023FB181B781B065B0FDBB2032B00D111
:101FD00088E103DC012B0AD000F068FC052B00D15E
:101FE00080E1072B01D100F039FC00F05FFCB14B20
:101FF0001B78002B06D0AA4B01225A70FFF71AFF5C
:1020000000F072FCFB68581C0A23FB181B88013B7C
:1020100099B2A94B1A68A94B04F070FA2023FB1857
:102020001A78A74B1A700A23FB181B88043B99B235
:10203000A14B1A68A2481823FB1804F021FA0A23BE
:10204000FB181B88043B9E4AD35C1A1C3B6B134352
:102050003B630A23FB181B88033B994AD35C1B0292
:102060003A6B13433B630A23FB181B88023B944AD9
:10207000D35C1B043A6B13433B630A23FB181B8896
:10208000013B8F4AD35C1B063A6B13433B63BB692E
:102090003A6B9A4200D0F8E0874B1868894B1A884F
:1020A00086497C4C7C4B0093231C04F05DFA844BE6
:1020B0001B791A1C844B1A60814B5B791A02824B84
:1020C0001B681A43804B1A607D4B9B791A047E4B28
:1020D0001B681A437C4B1A60794BDB791A1C7B4BCB
:1020E0001A60774B1B7A1A02784B1B681A43774B9E
:1020F0001A60734B5B7A1A04744B1B681A43734B58
:102100001A606F4B9B7A1A06704B1B681A436F4B11
:102110001A606B4BDB7A1B09DBB207221340DAB281
:102120006B4B5A76664BDB7A0F221340D9B2684B61
:1021300020229954624B1B7B1A1C0F231A40644BBC
:102140009A60634B9B68002B02D1614B01229A601D
:102150005F4B9B68181C0BF0C5F9031C0C1C181C6A
:10216000211C00225B4B0AF037FB031C0C1C181CC3
:10217000211C09F0ADFB021C554B9A60544B9B6827
:10218000181C0BF0AFF9031C0C1C181C211C00229E
:10219000504B09F0BBFB031C0C1C181C211C09F044
:1021A00097FB021C4A4BDA600A23FB181B88013B91
:1021B000102B5FDD1023FB1850221A71464B1B6851
:1021C00020221A43444B1A604123FB1803221A7041
:1021D0004023FB1800221A7040E04023FB181B78B4
:1021E0000D33374AD35C191C4023FB181B780E3380
:1021F000334AD35C1B020A1C1A434023FB181B788A
:102200000F332F49CB5C1B04134364225A43102322
:10221000FB181A601023FB181B68002B0AD04123FF
:10222000FB181A781023FB18101C19685A6803F061
:10223000F5FC05E04123FB181B78181C03F05EFE3B
:102240004123FB181A784123FB1801321A704023EE
:10225000FB184022BA18127803321A704123FB1877
:102260001B78072BB9D91C4B1B68202293431A1CDF
:10227000194B1A60194B00225A700E4B01221A702A
:10228000174B5A78124B5A7016E3144B05225A70AA
:1022900012E3C04628020020380200206406002015
:1022A0004C0600208406002058020020A4E900000B
:1022B000100600206905002024020020610400208F
:1022C00060040020480200204C0200205002002040
:1022D0007C0A002000408F40AC05002078060020DA
:1022E0004C0A00203F23FB181B783F22BA18591CC8
:1022F00011701A1CFB689B181B78BB633F23FB18EB
:102300001B783F22BA18591C11701A1CFB689B18C5
:102310001B781B02BA6B1343BB633F23FB181B786C
:102320003F22BA18591C11701A1CFB689B181B78A5
:102330001B04BA6B1343BB633F23FB181B783F227C
:10234000BA18591C11701A1CFB689B181B781B06C5
:10235000BA6B1343BB63C34B1B68BA6B9A4227D05B
:10236000C14B1B68FB6415E0FB6C1A68BB6B9A429F
:102370000DD14323FB1801221A70FB6C0433BB649C
:10238000FB6C14337B64FB6C5B6A3B6505E0FB6CA8
:102390009B6AFB64FB6C002BE6D14323FB181B7884
:1023A000002B10D1B14B09225A70FFF743FD9BE27D
:1023B0004323FB1800221A70AD4BBB64AD4B7B640A
:1023C000AD4B1B683B653F23FB181B783F22BA18B7
:1023D000591C11701A1CFB689B181A781C23FB18D7
:1023E0001A703F23FB181B783F22BA18591C117032
:1023F0001A1CFB689B181A782E23FB181A803F239F
:10240000FB181B783F22BA18591C11701A1CFB6864
:102410009B181B781B029AB22E23FB181B881343B0
:102420009AB22E23FB181A801C23FB181B781B075B
:102430001B0FDBB21A1C3723FB1808321A700A2351
:10244000FB181B88043BFA68D3181B781A1C3B6BDB
:1024500013433B630A23FB181B88033BFA68D3181A
:102460001B781B023A6B13433B630A23FB181B8840
:10247000023BFA68D3181B781B043A6B13433B6387
:102480000A23FB181B88013BFA68D3181B781B062C
:102490003A6B13433B632C23FB183A6D1A802A23B3
:1024A000FB182E22B9182C22BA18098812888A1A09
:1024B0001A802A23FB181B881BB2002B20DB2A233F
:1024C000FB181B883A6DD3183B650A23FB181B8841
:1024D000043B99B2F868BA6CBC6B012300933B6D66
:1024E00001931823FB180293231C03F045FEBB69DC
:1024F0003A6B9A422BD14223FB1801221A7026E034
:102500002A23FB181B881AB23B6DD3188022520273
:10251000944663447B620A23FB181B88043B99B2F0
:10252000F868BA6CBC6B012300937B6A0193182393
:10253000FB180293231C03F01FFEBB693A6B9A42FF
:1025400005D14223FB1801221A707B6A3B652A23BE
:10255000FB181B88494A934208D9444B08225A70F9
:10256000424B3A6D5A61FFF765FCBDE14223FB180F
:102570001B78002B00D16AE13C4B00225A703B4B88
:102580004322BA1812789A701C23FB181B78DB06BA
:10259000DB0FDBB21A1C354B5A71344B00229A60A8
:1025A000324B00221A73314B3A6D5A61344B002280
:1025B0005A70344B00221A60334B00221A704323A6
:1025C000FB181B78012B18D1284B02221A70FB6CC8
:1025D0005A6A3B6D9A420CD1FB6C5B6A002B08D0A7
:1025E000224B06225A70214B3A6D5A61FFF722FCAA
:1025F0007AE1FB6C3A6D5A624DE02023FB181B78A0
:102600001F229343DBB2A02B13D1204B01221A705F
:10261000164B01221A70184B1A683B6D9A4237D13B
:10262000154B1B68002B33D05723FB1801221A705F
:102630002EE0164B00221A700C4B00221A700E4B23
:102640001A683B6D9A4223D10B4B1B68002B1FD09D
:10265000064B06225A70054B3A6D5A61FFF7EAFBAA
:1026600042E1C04650020020540200204C060020E7
:10267000280200203802002064050020FF3F0000EF
:10268000640600206C050020740500207105002000
:10269000974B3A6D1A600A23FB181B881A1F3723C1
:1026A000FB181B78D31A002B00DC8EE03723FB18B5
:1026B0001B783722BA18591C11701A1CFB689A181B
:1026C0003623FB1812781A700A23FB181B88DAB21B
:1026D0003723FB181B78D31ADAB23523FB18043AD8
:1026E0001A70844B3622BA181278DA703623FB1827
:1026F0001B78002B2DD11C23FB181B780F221340B5
:10270000DBB2002B20D13723FB181B78FA68D018D6
:102710003523FB181B7899B2BA6CBC6B012300936C
:102720003B6D0193744B0293231C03F08BFEFB1D46
:102730001C78714A3523FB181B78101C00211A1CC9
:10274000231C01F07FFB54E05723FB1801221A7071
:102750004FE01C23FB181B781B071B0FDBB2002B61
:102760000BDD3723FB181B78013BDAB2FB1D1B780E
:10277000F968081C082101F065FB3723FB181B785A
:10278000FA68D0183523FB181B7899B27A6CBC6BA9
:10279000012300933B6D0193574B0293231C03F0DD
:1027A00051FE5723FB181B7801225340DBB2002B4C
:1027B0001FD0504B504A9A604E4B3522BA181278AF
:1027C0001A734C4B01225A7313E01C23FB181B781D
:1027D0001B071B0FDBB2002B0BDDFB1D1C78FA68FF
:1027E0003723FB181B78101C08211A1C231C01F02E
:1027F00029FB5723FB181B7801225340DBB2002B27
:102800002BD01C23FB181B7820221340DBB2002B9B
:102810000AD03A4B01221A71364B01229A74384B76
:10282000181CFEF753FF0CE0344B00221A71354B95
:102830001A78354B1B789A4203D9314B181CFEF796
:1028400045FF324B1A7802210A431A7034E0294BB3
:102850000A225A70FFF7EEFA46E02DE03F23FB18FC
:102860001B78FA68D21824490A23FB181B88081C15
:10287000111C1A1C05F0D2F91E4B03221A701D4BB5
:1028800000225A701B4B1C4A9A600A23FB181B88B3
:10289000DAB23F23FB181B78D31ADAB2154B1A733E
:1028A0001A4B1A7802210A431A7005E0114B0122D3
:1028B0005A70FFF7BFFAC046154B1B78002B05D1A5
:1028C000144B1B78022B01D100F09EFB0F4B1A78A2
:1028D00008210A431A70104B181C0121FEF7B4FF9F
:1028E0000D4B181CFEF7A8FDBD4617B090BDC046A5
:1028F000640500204C0600206004002064060020CF
:102900002C060020E5000020E4000020480A0020FA
:102910008406002058020020B005002080B500AFDA
:102920000B4B1B78022B03D00A4BDB6A984701E064
:1029300000F06AFB084B02225A70084B02225A70C0
:10294000074B1A7808210A431A70BD4680BDC0465D
:1029500058020020A4E90000640600207806002048
:10296000480A002080B500AF0F4B1B78022B03D024
:102970000E4BDB6A984701E000F046FB0C4B1B78DE
:10298000012B0ED10B4B1B78002B02D00A4B0422DB
:102990005A700A4B04225A70094B1A7808210A43CC
:1029A0001A70BD4680BDC04658020020A4E9000050
:1029B00084060020700500206406002078060020B0
:1029C000480A002080B500AF0F4B1B78022B03D0C4
:1029D0000E4BDB6A984701E000F016FB0C4B1B78AE
:1029E000012B0ED10B4B1B78002B02D00A4B03227C
:1029F0005A700A4B03225A70094B1A7808210A436D
:102A00001A70BD4680BDC04658020020A4E90000EF
:102A1000840600207005002064060020780600204F
:102A2000480A002080B582B000AFB74B181CFEF7F3
:102A30004DFEFB1D00221A70B44B1B780822134078
:102A4000DBB2002B00D1A7E1B14B1B684022134041
:102A50000DD0AF4B1B68402293431A1CAC4B1A603D
:102A6000AB4B1B68012293431A1CA94B1A60A74B5E
:102A70001B7804221340DBB2002B06D1A34B1B783A
:102A800001221340DBB2002B1BD0A24B5B78022B40
:102A900003D0A14B5B78022B13D19D4B1B68012205
:102AA00093431A1C9A4B1A609C4B1A78994B5A7193
:102AB000984B00221A71974B00229A60FB1D01224D
:102AC0001A70974B1B7801225340DBB2002B00D1C8
:102AD0007DE0FB1D1B7801225340DBB2002B00D1AF
:102AE00075E08A4B1B7804221340DBB2002B06D121
:102AF000864B1B7801221340DBB2002B67D0834B3F
:102B00001B7804221340DBB2002B30D0824B1B78A1
:102B1000002B2CD1834B1A787F4B9A727E4B5B78BB
:102B2000002B0DD1804B00221A60804B00221A70BE
:102B3000774B1B68012293431A1C754B1A6015E0F2
:102B4000784B1A787A4B1B789A4207D3704B1B68E4
:102B5000012293431A1C6E4B1A6007E06B4B1A78E4
:102B600008218A431A7000F089F930E02FE0714B98
:102B70001A7E6E4B1B789A4206D9644B1B78022250
:102B80001340DBB2002B1BD0684B00221A706A4B3B
:102B90001B685A1C684B1A60684B1B780122534013
:102BA000DBB2002B04D0604B1B685A1C5E4B1A60D2
:102BB000574B1B68012293431A1C554B1A6006E0C1
:102BC000524B1A7808218A431A7000F057F94F4B7C
:102BD0001B7802221340DBB2002B26D04D4B1B7911
:102BE000002B05D14D4B1A78554B1B789A421CD9B6
:102BF000544B00221A704A4B00221A704F4B1B781C
:102C000001225340DBB2002B04D0474B1B685A1CF7
:102C1000454B1A60414B1A783E4B5A713C4B1B682E
:102C2000012293431A1C3A4B1A60464B1B78002B27
:102C300000D1B1E0364B1B681022134000D0ABE04E
:102C4000404B00221A70354B1A783D4B1B789A4244
:102C500000D37DE0314B1B78082B00D978E02F4B57
:102C60001B780133DAB22D4B1A702C4B1B780122E2
:102C70001340DBB2002B09D02E4B5B785BB2013BDB
:102C8000002B00DA0023DAB22A4B5A702E4B197847
:102C9000284B5A782D4B1B7852B2081C111C1A1C59
:102CA00000F00EFD031E07D0184B1A7808218A4346
:102CB0001A7001F051FD25E0164B07225A70144B93
:102CC0001B68012293431A1C114B1A60144B0022FB
:102CD0001A70104B00221A71104B1A780D4B5A7152
:102CE000144B5B78DAB20B4B9A70144B1B780122B1
:102CF0005340DBB2002B05D00B4B1B685A1C0A4B10
:102D00001A6049E048E0C046B0050020480A0020AB
:102D1000AC0500206406002078060020E5000020B5
:102D2000700500204806002060050020970500205F
:102D3000490600207C0A00206C0500206805002060
:102D4000E4000020400600205E0300207305002000
:102D50003E4B9B8C072213439AB23C4B9A843C4BCC
:102D60001B68012293431A1C394B1A60394B00220D
:102D70001A70394B00221A71384B1A78364B5A7137
:102D8000374B1B7801225340DBB2002B04D0354B6C
:102D90001B685A1C334B1A602D4B1B6802221340D0
:102DA00006D02B4B1B68022293431A1C284B1A6037
:102DB000274B1B68002B29D12B4B1B78012213407A
:102DC000DBB2002B0AD0294B1B681B68224A101C5F
:102DD0009847254B1A7801218A431A70224B1B7899
:102DE00004221340DBB2002B0AD0204B1B689B68E7
:102DF0001F4A101C98471C4B1A7804218A431A70EA
:102E0000194B1A7808218A431A700AE0194AFA23E2
:102E10009B00101C191CFEF717FD164B181CFEF723
:102E20000BFB114B1B7802221340DBB2002B0AD0A4
:102E30000E4B1B685B68104A101C98470A4B1A78A7
:102E400002218A431A70BD4602B080BD7C0A002070
:102E5000AC0500207005002064060020E50000207D
:102E60006805002060050020480A0020C4050020F5
:102E700078060020B00500204C06002080B584B004
:102E800002AF244B181CFEF721FC234B1B681022B9
:102E900093431A1C204B1A60204B1B7804221340CA
:102EA000DBB2002B31D01E4B1B78002B2DD101F053
:102EB000DBFD1C4B1B789BB201339BB2181C01F04D
:102EC0007BFD031C1A1C184B5A703B1D00221A7004
:102ED0003B1D1A781F210A401A703B1C00221A70F1
:102EE000124B1A783B1CD0011A787F210A40111C22
:102EF000021C0A431A70391D3A1C00230093081C57
:102F0000111C0022002301F059FE01F025FCBD46F2
:102F100002B080BDE8050020AC050020480A002072
:102F200078060020480600207C0A00206A05002060
:102F300090B585B002AFBB1D05221A807B1D002213
:102F40001A7000233B60294B181CFEF7BFFB284B6F
:102F500000221A70274B1B78022B02D1264B1B6BC9
:102F60009847264B5B78DAB2244B5B7ED31ADAB2F1
:102F70007B1D1A707B1D1B787F2B02D97B1D0022C5
:102F80001A707B1D1B785BB2032B04D07B1D1B7852
:102F90005BB2042B03D1BB1D08221A8012E07B1DFB
:102FA0001B785BB2052B03D1BB1D0A221A8009E0F6
:102FB0007B1D1B785BB2062B04D101233B60BB1D3C
:102FC0000E221A800E4B1B781A1C0E4BD200D058C2
:102FD0007B1D002159563A68BB1D1C8800230093B5
:102FE000231C00F079FABD4603B090BDFC0500201B
:102FF0008406002058020020A4E900007C0A00207A
:10300000A50500206400002090B587B002AF0E2314
:10301000FB1805221A800023BB60FB1D00221A70DA
:10302000234B181CFEF752FB224B20229B5C032BE8
:1030300004D0204B20229B5C042B04D10E23FB18D0
:1030400008221A8014E01B4B20229B5C052B04D124
:103050000E23FB180A221A800AE0164B20229B5CE2
:10306000062B05D10123BB600E23FB180E221A800C
:10307000114B1B78022B02D1FB1D01221A700D4B44
:10308000D8690C4B20229B5CDBB259B2BA680E2384
:10309000FB181C88FB1D1B780093231C00F01CFAF6
:1030A000031E02D0054B01221A70BD4605B090BD2B
:1030B000100600207C0A0020580200208406002010
:1030C00080B500AF0E4B181CFEF700FB0D4B1B78B4
:1030D000002B09D00C4B01221A700C4B1B680422E8
:1030E00093431A1C094B1A60094B1B78022B04D11D
:1030F000084B1A7808210A431A70BD4680BDC046A5
:103100002C0600207005002040060020AC050020A1
:1031100058020020480A002090B58BB000AF7860BC
:103120002723FB1800221A702623FB1800221A708E
:1031300001235B423B620C23FB18181C0021102268
:1031400004F0A6FDD84B9B8C181C102100F008FB46
:10315000031E06D1D44B9B8C072213439AB2D24B49
:103160009A84D24B1B68181CFEF790FB021ED04BB2
:103170001B689A4200D263E1CD4B00221A601F23E4
:10318000FB1800221A7094E0CA4B1B7801225340AE
:10319000DBB2002B03D1C84B1B78002B6FD01F2351
:1031A000FB181A78C549131C5B009B189B00CB18B1
:1031B00008331C681F23FB181A78C049131C5B00D6
:1031C0009B189B00CB185B68181CFEF75FFB031C69
:1031D0009C420BD81F23FB181A78B849131C5B00BC
:1031E0009B189B00CB18083300221A601F23FB1882
:1031F0001A78B249131C5B009B189B00CB1808334C
:103200001B68002B3AD01F23FB181A78AB49131CFC
:103210005B009B189B00CB1808331C681F23FB180E
:103220001A78A649131C5B009B189B00CB185B689F
:10323000181CFEF72BFB031CE21A3B6A9A421AD2B7
:103240001F23FB181A789D49131C5B009B189B00D9
:10325000CB1808331C681F23FB181A789749131CD6
:103260005B009B189B00CB185B68181CFEF70EFBDD
:10327000031CE31A00E03B6A3B6213E012E08E4B52
:103280001B7801225340DBB2002B0BD01F23FB180D
:103290001A788A49131C5B009B189B00CB180833D3
:1032A00000221A601F23FB181A781F23FB18013213
:1032B0001A701F23FB181B78042B00D864E71E2309
:1032C000FB1800221A701D23FB1800221A70B0E0B0
:1032D0001C23FB1800221A7097E01D23FB181B7893
:1032E000714A10335B00D3189B881A1C1C23FB18EF
:1032F0001B781A41131C0122134000D17EE01E23CB
:10330000FB181A781C23FB181B78D2186C4BD200C0
:10331000D358002B00D171E0664B1B78012253403B
:10332000DBB2002B09D01C23FB181B7807221A41A3
:10333000131C0122134000D160E01E23FB181A78F1
:103340001C23FB181B78D3185D4ADB00D3181B79AC
:103350001B015BB21B11DBB21A1C534B5B7852B2E0
:103360005BB29A4215DC504B59781E23FB181A7831
:103370001C23FB181B78D318514ADB00D3181B7988
:103380005BB21B11DBB24AB25BB29A4201DC012391
:1033900000E00023002B00D130E01E23FB181A7838
:1033A0001C23FB181B78D318454ADB00D3185B7924
:1033B000191C424A0B1C5B005B189B00D318083396
:1033C0001B68002B07D02623FB181A782623FB182E
:1033D00001321A7012E02723FB181B782722BA1833
:1033E000591C1170191C1E23FA181C23FB18127883
:1033F0001B78D318DAB20C23FB185A541C23FB1881
:103400001A781C23FB1801321A701C23FB181B7836
:103410000F2B00D861E71E23FB181E22BA18127862
:1034200010321A701D23FB181A781D23FB18013265
:103430001A701E23FB181B780F2B00D848E710E0EA
:103440002623FB181A782623FB1801321A70184B12
:103450001C68164B1B68181CFEF718FA031CE31AAD
:103460003B622723FB181B78002B12D02723FB1865
:103470001B78013B0020191C04F0B8FB021C0C2334
:10348000FB189A5C0F4B1A707B6800221A600123AC
:103490001EE02623FB181B78002B15D07B683A6AA8
:1034A0001A60012314E0C0467C0A00209C0500201D
:1034B000A005002069050020A405002028000020A8
:1034C00064000020A50500207B6800221A6000230C
:1034D000181CBD460BB090BDB0B590B00AAFF860F7
:1034E000081C7A60191C0B23FB18021C1A70082395
:1034F000FB180A1C1A800B23FB1800229A5616236D
:10350000FB185B498A5C1A705A4B5B689847031E2C
:1035100000D0A8E0574BDB68FA68101C98470B23D3
:10352000FB181A78544B1A710B23FB181B785BB2EB
:10353000072B39D11723FB1800221A704D4B9C69B9
:103540001623FB181B78181C09F090FF021C0B1C9B
:10355000101C191C0022494B09F03EF9021C0B1CDF
:10356000101C191C08F0B4F9051C1723FB181A7855
:103570004349444B00930523019300230293002306
:103580000393002304930123059300230693002350
:103590000793002308932823FB181B780993101C1A
:1035A0002A1C0023A04726E01723FB1801221A70CB
:1035B000304B9C691623FB181A781723FB181878D0
:1035C000796800230093082301930823FB181B88C4
:1035D0000293002303930023049300230593002305
:1035E000069300230793012308932823FB181B78D5
:1035F00009930123A047244B1B78002B0FD01D4BB0
:103600005B6D0B22BA18127852B220498A5C0D32D7
:10361000D1B21722BA181278101C98470EE0154B39
:103620005B6D0B22BA18127852B219498A5C0D32BE
:10363000D1B21722BA181278101C98472823FB1809
:103640001B7801225340DBB2002B06D0094B5A6B8A
:10365000104B5B68181C904703E0064B5B6B002027
:103660009847012300E00023181CBD4606B0B0BDFA
:103670009CE70000A4E900004C06002000408F40B9
:1036800050C30000854501005A020020ACE700004D
:10369000A4E700007C0A002080B582B000AF78600B
:1036A000064B1B6A7A68101C9847031E01D0012341
:1036B00000E00023181CBD4602B080BDA4E9000054
:1036C00090B585B000AF041C081C111CFB1D221C0A
:1036D0001A70BB1D021C1A707B1D0A1C1A700E2367
:1036E000FB1800221A800C23FB1800221A80194BA9
:1036F0001B78002B08D0BB1D1B785BB2164AD25C2E
:103700000E23FB181A8007E0BB1D1B785BB2134A1F
:10371000D25C0E23FB181A80FB1D1B7899B27B1D0F
:103720001B789AB20C23FB188A181A800C23FA18FB
:103730000E23FB1812881B889A4206D80C23FB180C
:103740001B88FF2B01D8012300E00023181CBD4675
:1037500005B090BD5A020020ACE70000A4E70000CD
:1037600080B584B000AF021CBB1D1A807B1D0A1CF3
:103770001A700F23FB1800221A700E23FB18002268
:103780001A701EE0BB1D1B880E22BA181278012188
:1037900091400A1C1A400E23FB181B780121994006
:1037A0000B1C9A4206D10F23FB181A780F23FB1823
:1037B00001321A700E23FB181A780E23FB180132FF
:1037C0001A700E23FA187B1D12781B789A42D9D3EF
:1037D0000F23FB181B78181CBD4604B080BDC046E3
:1037E00090B585B000AF021C3960FB1D1A70FB1D3F
:1037F0001B785BB2181C0021072200F09DF8031C07
:103800001A1C01235340DBB2002B01D000236AE0D5
:103810000F23FB1800221A700E23FB1800221A70C7
:103820005BE00D23FB1800221A7043E00E23FB1807
:103830001B785B003A68D3181B881A1C0D23FB18F1
:103840001B781A41131C012213402CD00F23FB18A4
:103850001A780D23FB181B78D318254ADB00D318E0
:103860001B791B015BB21B11DBB21C1C0F23FB1865
:103870001A780D23FB181B78D3181D4ADB00D318C8
:103880001B795BB21B11DBB2181CFB1D00215956C2
:1038900062B243B2081C111C1A1C00F04DF8031E42
:1038A00001D001231FE00D23FB181A780D23FB180C
:1038B00001321A700D23FB181B780F2BB6D90F237A
:1038C000FB180F22BA18127810321A700E23FB1848
:1038D0001A780E23FB1801321A700F23FB181B787D
:1038E0000F2B9ED90023181CBD4605B090BDC046C5
:1038F0006400002090B585B000AF021CFB1D1A705B
:10390000BB1D0A1C1A700F23FB18FA1D12781A70BF
:103910000F23FA18BB1DF91D0C781B7858B261B241
:10392000884200DA231C13700F23FB181B785BB24C
:10393000181CBD4605B090BD90B583B000AF041C07
:10394000081C111CFB1D221C1A70BB1D021C1A70C6
:103950007B1D0A1C1A70FA1DBB1D127852B21B780F
:103960005BB29A4209DBFA1D7B1D127852B21B78BA
:103970005BB29A4201DC012300E00023181CBD4623
:1039800003B090BD80B584B000AF021C3960FB1D50
:103990001A700F23FB1800221A700F23FB18FA1D50
:1039A000127812091A700F23FB181B78042B03D806
:1039B000FB1D1B780F2B01D900231DE00F23FB18E3
:1039C0001B785B003A68D3180F22BA18127852009D
:1039D00039688A18128890B2FA1D12780F210A40AD
:1039E000012191400A1C92B2D24391B2021C0A40BA
:1039F00092B292B21A800123181CBD4604B080BD59
:103A000080B584B000AF3A60FB1D021C1A70BB1D6C
:103A10000A1C1A700F23FB1800221A700E23FB18C1
:103A20002C4A52781A70FB1D1B78002B46D00E23AF
:103A3000FB181B785BB2002B07D1274B00221A60C2
:103A40000F23FB1800221A7038E0234B1B683F2B12
:103A500007D90F23FB1801221A701E4B00221A707F
:103A600003E00F23FB1800221A701B4B1B685F2B0F
:103A700024D9194B1B681F2213401FD10E23FB189A
:103A80001B785BB2002B08DD0E23FB181B78DBB222
:103A9000013BDAB20E23FB181A700E23FB181B78B9
:103AA0005BB2002B0AD1BB1D1B78002B06D0094B43
:103AB0009B8C072213439AB2064B9A843B680E22D2
:103AC000BA1812781A700F23FB181B78181CBD4601
:103AD00004B080BD7C0A00206C05002090B585B044
:103AE00000AF041C081C111CFB1D221C1A70BB1DFE
:103AF000021C1A707B1D0A1C1A700F23FB1801226E
:103B00001A70844B1A780E23FB180F218A1A1A7028
:103B1000FB1D1B78082B00D9EBE09A007E4BD318D5
:103B20001B689F467D4B1B780E22BA1812789A426A
:103B30000FD97A4B1B785A1CD1B2784A1170191CD4
:103B4000774BFA1D12785A540F23FB1800221A7073
:103B5000D1E0D0E0714B1B781A1C0E23FB181B78A8
:103B6000013B9A421ADA6D4B1B785A1CD1B26B4A50
:103B70001170191C6A4BFA1D12785A54674B1B7846
:103B80005A1CD1B2654A1170191C654BBA1D1278C6
:103B90005A540F23FB1800221A70ACE0ABE05F4BC5
:103BA0001B780E22BA1812789A420FD95B4B1B78F9
:103BB0005A1CD1B2594A1170191C594BFA1D12786E
:103BC0005A540F23FB1800221A7094E093E0534BD1
:103BD0001B781A1C0E23FB181B78013B9A421ADA39
:103BE0004E4B1B785A1CD1B24C4A1170191C4C4BCD
:103BF000FA1D12785A54494B1B785A1CD1B2474AC5
:103C00001170191C464BBA1D12785A540F23FB1819
:103C100000221A706FE06EE0404B1B781A1C0E23D6
:103C2000FB181B78023B9A4225DA3C4B1B785A1C46
:103C3000D1B23A4A1170191C394BFA1D12785A54F4
:103C4000364B1B785A1CD1B2344A1170191C344BB4
:103C5000BA1D12785A54314B1B785A1CD1B22F4AD4
:103C60001170191C2E4B7A1D12785A540F23FB1811
:103C700000221A703FE03EE0284B1B781A1C0E23EE
:103C8000FB181B78013B9A421ADA244B1B785A1C0A
:103C9000D1B2224A1170191C214BFA1D12785A54C4
:103CA0001E4B1B785A1CD1B21C4A1170191C1C4B9C
:103CB000BA1D12785A540F23FB1800221A701AE00A
:103CC00019E0164B1B780E22BA1812789A420FD9B7
:103CD000124B1B785A1CD1B2104A1170191C104B90
:103CE000FA1D12785A540F23FB1800221A7002E0B2
:103CF00001E002230AE00F23FB181B78002B02D1FE
:103D0000084B01221A700F23FB181B78181CBD46A4
:103D100005B090BD74050020BCE7000073050020CD
:103D2000780500207205002080B586B000AFF860ED
:103D30007A600B23FB180A1C1A701723FB18002249
:103D40001A701623FB1800221A70FB68002B02D091
:103D50007B68002B01D100236EE01723FB180022A3
:103D60001A705EE01723FB181B78FA68D3181B78CB
:103D7000082B4ED89A00324BD3181B689F46162347
:103D8000FB181B781622BA18591C11701A1C7B6874
:103D90009A181723FB181B7817217918581C0870DC
:103DA000191CFB685B181B7813701623FB181B7813
:103DB0001622BA18591C11701A1C7B689B181722FE
:103DC000BA181278F9688A1812781A7022E0162345
:103DD000FB181B781622BA18591C11701A1C7B6824
:103DE0009B181722BA181278F9688A1812781A7074
:103DF00010E01723FB181722BA18127802321A7033
:103E000008E01723FB181A781723FB1801321A70E1
:103E100000E0C0461723FB181A781723FB1801325D
:103E20001A701723FA180B23FB1812781B789A4282
:103E300098D31623FB181B78181CBD4606B080BD0E
:103E4000E0E7000090B58FB000AF78600C1C101C4C
:103E5000191CFB1C221C1A70BB1C021C1A707B1C38
:103E60000A1C1A7000F0F3FBFB1C1B78FA1C591C8F
:103E700011701A1C7B689B181B78082B01D900F065
:103E8000EFFB9A00E14BD3181B689F46E04B0022E2
:103E90005A70FB1C1B78FA1C591C11701A1C7B6889
:103EA0009B181A78DA4B1A72FB1C1B78FA1C591CE7
:103EB00011701A1C7B689B181A78D54B5A7200F047
:103EC000C6FB3623FB1807221A702E23FB1800228C
:103ED0001A702D23FB1800221A703323FB180022BE
:103EE0001A702C23FB1800221A701423FB180022CE
:103EF0001A801423FB1800225A801423FB18002276
:103F00009A801423FB180022DA801423FB18002265
:103F10001A811423FB1800225A813723FB18002230
:103F20001A7015E03723FB181A783723FB181B7813
:103F3000B84910335B00CB1899881423FB18520042
:103F4000D1523723FB181A783723FB1801321A7025
:103F50003723FB181B78052BE4D9FB1C1B78FA1CB4
:103F6000591C11701A1C7B689B181A782D23FB189A
:103F70001A702E23FB182D22BA1812780F210A402E
:103F80001A702D23FB181B781B09DAB22D23FB189E
:103F90001A70A14B1B7801225340DBB2002B1CD0BE
:103FA0009C4B59782D23FB1800229A564BB29A420B
:103FB00008D1984B19782E23FB1800229A564BB241
:103FC0009A420AD0032000210022FFF787FDFB1C44
:103FD000FA1C127803321A7039E3FB1C1B78FA1CA6
:103FE000591C11701A1C7B689B181A783423FB1813
:103FF0001A80FB1C1B78FA1C591C11701A1C7B6858
:104000009B181B781B029AB23423FB181B8813439E
:104010009AB23423FB181A80FB1C1B78FA1C591C1B
:1040200011701A1C7B689A183323FB1812781A70C7
:104030003323FB181B781B09DAB22C23FB1807214A
:104040000A401A703323FB183322BA1812780F2152
:104050000A401A703323FB181B78002B03D133233B
:10406000FB1801221A702C23FB181B78002B0DD192
:104070003423FB181B88002B08D13623FB1836226B
:10408000BA18127801218A431A7066E02C23FB18B3
:104090001B78002B04D02C23FB181B78052B04D98C
:1040A0002C23FB181B78062B08D93623FB18362245
:1040B000BA18127801218A431A704EE03723FB1890
:1040C00000221A703EE02C23FB181B78062B17D118
:1040D0003723FB181A78514BD200D358002B2AD023
:1040E0003723FB181B7801229A40131C9AB2342301
:1040F000FB181B8813439AB23423FB181A801AE06A
:104100003423FB181A883723FB181B781A41131C19
:10411000012213400FD03723FB181A783F4BD200EF
:10412000D358002B07D13623FB183622BA18127841
:1041300001218A431A703723FB181A783723FB189A
:1041400001321A703723FB181B780F2BBBD91423AD
:10415000FB183422BA1812881A802D23FB1800226B
:104160009A561423FB18101C191CFFF739FB031C6B
:104170001A1C01235340DBB2002B07D03623FB1857
:104180003622BA18127802218A431A702E23FB189D
:104190001B785BB2181C00210522FFF7CDFB031C26
:1041A0001A1C01235340DBB2002B07D03623FB1827
:1041B0003622BA18127804218A431A703623FB1863
:1041C0001B7807221340072B16D1124B2D22BA1849
:1041D00012785A700F4B2E22BA1812781A70104AA1
:1041E0001423FB18101C191C0C2203F017FD094B9B
:1041F0003322BA1812781A763623FB181B7803205C
:10420000191C0022FFF76AFC21E2C04604E8000006
:10421000780600207C0A00206A0500206400002047
:10422000A00A0020FB1C1B78FA1C591C11701A1CD8
:104230007B689B181A78DA4B1A70D94B1B781A1CBA
:10424000012393409AB2D74B1A8004200021002208
:10425000FFF744FCFBE13223FB1807221A702B23E3
:10426000FB1800221A702A23FB1800221A70002360
:104270007B62FB1C1B787A68D3181B781B09DBB2A6
:10428000DAB22A23FB18111C07220A401A70FB1C01
:104290001B787A68D3181B78DAB22B23FB18111C11
:1042A0000F220A401A70FB1C1A78FB1C01321A708C
:1042B000FB1C1B78FA1C591C11701A1C7B689B187C
:1042C0001B787B62FB1C1B78FA1C591C11701A1C92
:1042D0007B689B181B781B027A6A13437B62FB1C6A
:1042E0001B78FA1C591C11701A1C7B689B181B78D0
:1042F0001B047A6A13437B627B6A642253437B62AA
:104300007B6A181CFFF7C8F9031C1A1C01235340D1
:10431000DBB2002B07D03223FB183222BA181278F6
:1043200001218A431A702B23FB181B785BB2181CDF
:1043300000210722FFF700FB031C1A1C0123534036
:10434000DBB2002B07D03223FB183222BA181278C6
:1043500002218A431A702A23FB181B785BB2181CAF
:1043600000210522FFF7E8FA031C1A1C0123534021
:10437000DBB2002B07D03223FB183222BA18127896
:1043800004218A431A703223FB181B78072213403A
:10439000072B0DD12B23FB181978834B202299541E
:1043A000814B7A6ADA612A23FB181A787E4B5A7697
:1043B0003223FB181B780520191C0022FFF78EFB07
:1043C00045E13123FB18FF221A70784B1B68002B44
:1043D0000CD0764B1B681B68002B07D0734B1B68F7
:1043E0001B683122BC189847031C23703123FB182B
:1043F0001A787B1C1B780620111C1A1CFFF76EFB19
:1044000025E13023FB1803221A702323FB18002216
:104410001A70FB1C1B78FA1C591C11701A1C7B6843
:104420009B181A782323FB181A70FB1C1B78FA1CA4
:10443000591C11701A1C7B689B181B781A1C0C23C2
:10444000FB181A60FB1C1B78FA1C591C11701A1CF3
:104450007B689B181B781A020C23FB181B681A43F5
:104460000C23FB181A60FB1C1B78FA1C591C1170DA
:104470001A1C7B689B181B781A040C23FB181B68FA
:104480001A430C23FB181A600C23FB181B686422C8
:104490005A430C23FB181A60FB1C1B78FA1C591C8E
:1044A00011701A1C7B689B181B78DAB20C23FB185E
:1044B0001A713F4B1B6820221A433D4B1A600C2394
:1044C000FB181B68002B1FD12323FB181B785BB242
:1044D000022B08DC3023FB183022BA181278032193
:1044E0008A431A704BE02323FB181B78181C01F039
:1044F00005FD031E43D03023FB183022BA18127872
:1045000003218A431A703AE02323FB181A780C23FC
:10451000FB18101C19685A6801F080FB031E042B5D
:1045200008D002DC002B29D01FE0052B0BD0062B76
:1045300012D01AE03023FB183022BA181278012169
:104540008A431A701BE03023FB183022BA18127805
:1045500002218A431A7012E03023FB183022BA1865
:10456000127803218A431A7009E03023FB183022A5
:10457000BA18127803218A431A7000E0C0460C4B27
:104580001B68202293431A1C094B1A603023FB1826
:104590001B780720191C0022FFF7A0FA57E0C0463D
:1045A000980500209A0500207C0A0020C8050020FC
:1045B000AC050020FB1C1B78FA1C591C11701A1C3E
:1045C0007B689B181A782F23FB180F210A401A705A
:1045D0002F23FB181B78002B06D12F23FB181A78EA
:1045E0002F23FB1801321A702F23FB181B78181C7D
:1045F00008F03CFF031C0C1C181C211C00221A4B49
:1046000008F0EAF8031C0C1C181C211C07F060F9C8
:10461000021C164B9A60154B9B68181C08F062FF31
:10462000031C0C1C181C211C00220F4B07F06EF9F8
:10463000031C0C1C181C211C07F04AF9021C0B4B14
:10464000DA60082000210022FFF748FAC046FA1C71
:10465000BB1C12781B789A4201D2FFF705FC00E0E0
:10466000C046BD460FB090BD00408F407C0A002080
:10467000B0B588B002AFF860081C7A60191C0B2333
:10468000FB18021C1A700823FB180A1C1A80172337
:10469000FB1803221A701423FB1800221A7014232B
:1046A000FB181A780F218A431A701423FB181A7802
:1046B00010218A431A701423FB181A7820218A4388
:1046C0001A701423FB181A7840218A431A701F4B62
:1046D0001A781423FB18D0011A787F210A40111C84
:1046E000021C0A431A701723FC18F8681423F918DF
:1046F0000B23FB181A787D680823FB181B8800938E
:104700002B1C00F05BFA031C23701723FB181B788B
:10471000002B03D01723FB181B7812E00C4B002250
:104720005A710B4B00221A710A4B1A68084BDA6057
:104730001723FC1800F010F8031C23701723FB1834
:104740001B78181CBD4606B0B0BDC0466A050020E7
:10475000640600206005002080B582B000AF002311
:104760007B60234B1B78FF2B01D10A233CE0204BBD
:104770001B78002B02D11F4B00221A600AE01E4B4F
:104780005A781E4B5A701D4B9B8C072213439AB2CA
:104790001A4B9A843B1D181CFEF7BEFC031C1A1C06
:1047A00001235340DBB2002BE9D17B68002B0AD1F7
:1047B000134B1B78134ADB009858D318596800F044
:1047C00019FD031C10E0104B1B6810221A430E4BFE
:1047D0001A607B680D4A101C191CFDF735F80B4B4D
:1047E000181CFCF729FE0023181CBD4602B080BD32
:1047F00098050020A00500204C0A00207C0A00201B
:10480000A505002064000020AC050020E80500207C
:1048100090B583B000AFBB1D00221A80194B1B68F6
:10482000181CFDF733F8031C3B60386808F05AFE8B
:10483000031C0C1C181C211C0022134B07F002F84F
:10484000031E03D0BB1D64221A8014E0386808F0F0
:1048500049FE031C0C1C181C211C00220B4B06F0EB
:10486000F1FF031E04D0BB1DFA2292001A8002E061
:10487000BB1D074A1A80BB1D1B88181CBD4603B010
:1048800090BDC046A805002040774B41FCE1824125
:104890001027000090B585B000AF021CFB1D1A70F8
:1048A000FB1D1B783D4ADB00D3185B79181C0E23D7
:1048B000FA183B49031C5B001B189B005B5A1380D2
:1048C0000C23FB1800221A80FB1D1B78334ADB00E7
:1048D000D3185B79191C324A0B1C5B005B189B00D8
:1048E000D318083300221A602E4B1B780122534044
:1048F000DBB2002B2AD00C23FC18FFF789FF031C26
:1049000023800E23FA180C23FB180E2179180C882B
:104910001B8898B2A1B2884200D2231C1380FB1DD1
:104920001B781E4ADB00D3185B79181C0E23FB187A
:104930001B885A1E1C4B1B685A431949031C5B00F9
:104940001B189B00CB1808331A6019E0174B1B7813
:10495000002B15D0FB1D1B78104ADB00D3185B79A8
:10496000181C0E23FB181B885A1E0F4B1B685A433A
:104970000B49031C5B001B189B00CB1808331A6003
:104980000B4B1B885A1E084B1B685A43094B1B686C
:10499000D218084B1A60BD4605B090BD64000020D7
:1049A000280000206905002044060020A4050020FE
:1049B0009A050020A005002080B584B000AF021C3D
:1049C000BB1D1A800F23FB1800221A70BB1D1B8809
:1049D000181C302106F024FE0B1C9BB2002B04D1C6
:1049E0000F23FB1800221A7036E0BB1D1B881F2204
:1049F00013409BB2002B04D10F23FB1801221A7025
:104A00002AE0BB1D1B88181C182106F009FE0B1C90
:104A10009BB2002B04D10F23FB1802221A701BE05B
:104A2000BB1D1B880F2213409BB2002B04D10F2308
:104A3000FB1803221A700FE0BB1D1B8807221340CE
:104A40009BB2002B04D10F23FB1804221A7003E041
:104A50000F23FB1805221A700F23FB181B785BB27B
:104A6000181CBD4604B080BD80B582B000AF3C4B81
:104A700000221A703B4B00221A603B4B00221A6046
:104A80003A4B00221A603A4B00221A70394B01222D
:104A90001A70394B01221A70384B00221A70384BA9
:104AA00000221A70374B01221A80374B00221A70ED
:104AB000364B00221A70364B01221A70354B1A7889
:104AC000354B1A70334B5A78334B5A70314B5A6806
:104AD000314B5A602F4B9A682F4B9A602D4BDA68F6
:104AE0002D4BDA602B4B1A692B4B1A61294B5A69F3
:104AF000294B5A61274B5A7E274B5A76254B1A7EF3
:104B0000254B1A76244B234A1C331C3203CA03C399
:104B1000224A234B101C191C0C2203F07FF8214B56
:104B200000221A70204B00221A70204B00221A70AB
:104B30001F4B1B687B6005E07B6800225A627B6824
:104B40009B6A7B607B68002BF6D11A4B10221A708F
:104B5000FCF794FE021C184B1A60BD4602B080BDE3
:104B60006905002060050020640500206C05002018
:104B700097050020E4000020E5000020400600200A
:104B8000980500209A050020730500207405002078
:104B9000250000204C0A00207C0A0020A00A0020EA
:104BA000700A0020700500207105002072050020A9
:104BB00054020020A5050020A8050020B0B58CB047
:104BC00004AFF860B9603B60FB1D1A701D23FB1831
:104BD00000221A7000233B613B68BB611723FB185E
:104BE000FA1D12781A70DE4B00221A80DD4B00226B
:104BF0001A703B68002B03D13023FB1800221A8067
:104C00003023FB181B88DAB2D74B1A701D23FB1810
:104C10001B781D22BA18591C11701A1CFB681978D0
:104C2000D24B9954FB681B781B065B0FDBB2022B3F
:104C300000D19EE002DC002B07D0B9E2042B00D1AA
:104C400094E0072B00D191E2B2E2C94B1B69DA1E56
:104C5000C84B1A60C64B5B69DA1EC74B1A601D232E
:104C6000FB181B789AB2BE4B1A80BD4B1B881A1CCE
:104C7000BE4BD218C14B1B68101C191C082202F035
:104C8000E7FFB74B1B8808339AB2B54B1A80B44B79
:104C90001B881A1CB54BD218B94B1B68101C191C69
:104CA000082202F0D5FFAE4B1B8808339AB2AC4BFA
:104CB0001A80B44B5B699847031C9AB2B24B1A80B6
:104CC000A74B1B885A1C91B2A54A11801A1CAE4BE7
:104CD0001B88D9B2A54B9954A14B1B885A1C91B281
:104CE0009F4A11801A1CA84B1B881B0A9BB2D9B281
:104CF0009E4B99549A4B1B88FF22134099B2A34BA9
:104D00001A689A481023FB1801F0BAFB944B1B88D1
:104D10005A1C91B2924A11801A1C3B69D9B2934B2A
:104D200099548F4B1B885A1C91B28D4A11801A1CC2
:104D30003B691B0AD9B28D4B9954894B1B885A1C6D
:104D400091B2874A11801A1C3B691B0CD9B2874B60
:104D50009954834B1B885A1C91B2814A11801A1CAA
:104D60003B691B0ED9B2814B995423E27D4B012242
:104D70001A70874B1B7801225340DBB2002B01D005
:104D8000072318E2BB681B781B06DB0FDBB25A1E39
:104D90009341DAB27F4B101C01211A1CFEF730FE42
:104DA000031C191CBB6801220A4090011A7840219B
:104DB0008A43111C021C0A431A706B4B19786C4B06
:104DC0005A78754B1B7852B2081C111C1A1CFEF73E
:104DD00077FC031C1A1C01235340DBB2002B01D0CB
:104DE0000823E8E1624B9B68DA1E624B1A60604B55
:104DF000DB68DA1E604B1A60684B1B78002B07D00B
:104E0000664B00221A70BB681A7820210A431A7078
:104E10001D23FB181B781D22BA18591C11701A1C6F
:104E20005F4B1B68D9B2514B99541D23FB181B785B
:104E30001D22BA18591C11701A1C594B1B681B0AE9
:104E4000D9B24A4B99541D23FB181B781D22BA185E
:104E5000591C11701A1C524B1B681B0CD9B2434BC6
:104E600099541D23FB181B781D22BA18591C117068
:104E70001A1C4B4B1B681B0ED9B23C4B99541D237B
:104E8000FB181B781D22BA18591C11701A1CBB681C
:104E90001978364B99541D23FB181B781D22BA181C
:104EA000591C11701A1C3F4B1B68D9B22F4B9954D7
:104EB0001D23FB181B781D22BA18591C11701A1CCF
:104EC000384B1B681B0AD9B2284B9954324B1B78BC
:104ED0001A1C354BD118354B1B789BB2344A081C31
:104EE000111C1A1C02F09AFE2B4B1A782F4B1B78C0
:104EF000D318DAB2284B1A70BB69002B00D17AE0C4
:104F0000194B1B78002B00D175E0234B1B780F2B1E
:104F100070D8284B1B78002B6CD0BB681B781B0704
:104F20001B0FDBB21A1C1C4B1B78D318DBB21A1CEC
:104F30000F231340DAB2BB680F210A40101C1A7805
:104F40000F218A43111C021C0A431A70BB681A788D
:104F5000064B5A711E23FB1800221A8042E0C046FD
:104F60005C030020700500205E0300205C0200202E
:104F70007C0A0020240600202806002020020020B1
:104F80001C020020A4E900004802002024020020A6
:104F9000690500207D0A00207305002071050020AE
:104FA00050020020600500207805002074050020D4
:104FB00088050020720500201D23FB181B781D2288
:104FC000BA18591C1170191C1E23FB181B887C4A27
:104FD000D25C7C4B5A541E23FB181A881E23FB18E4
:104FE00001321A80784B1B789BB21E22BA181288A5
:104FF0009A42E1D311E0744B1B78002B0DD0734B18
:105000001B78002B09D0704B1A78714B1A706C4BBF
:10501000BB611723FB1800221A706C4B00221A7018
:10502000694B1A7866496B4B081C111C1A1CFEF759
:105030007BFE031C1A1C684B1A70674B1B78002BF5
:1050400002D0624B01221A705F4B00221A70BB69BA
:10505000002B48D05E4B1B78002B44D01D23FB183F
:105060001B781D22BA18591C1170191C554B172298
:10507000BA1812785A541723FB181B78002B12D138
:10508000534B1B7899B2554B1C68554B1B68B8693C
:10509000544D002200920193534B02932A1C231C6F
:1050A00001F0E2F811E04A4B1B7899B24B4B1C68B7
:1050B0004B4B1B68B8694D4D0022009201934A4B3F
:1050C00002932A1C231C01F0CFF81D23FB181A7829
:1050D0003C4BD1183E4B1B789BB2434A081C111C19
:1050E0001A1C02F09BFD1D23FB181B789AB2384B4B
:1050F0001B789BB2D3189AB23D4B1A803C4B19884F
:10510000364B1C68364B1B682E48364D00220092E9
:1051100001931023FB1802932A1C231C01F02CF886
:10512000334B1B881A1C3B69D9B2264B9954304B20
:105130001B8801333A69120AD1B2224AD1542C4B4E
:105140001B8802333A69120CD1B21E4AD154284B43
:105150001B8803333A69120ED1B21A4AD154244B38
:105160001B8804339AB2224B1A8023E03B68002B41
:105170001DD0174B1B78002B19D01D23FB181A7854
:10518000104BD118124B1B789BB23A68081C111CAB
:105190001A1C02F043FD1D23FB181B789AB20C4B1E
:1051A0001B789BB2D3189AB2114B1A8002E001E02F
:1051B000022300E00023181CBD4608B0B0BDC04665
:1051C000780500205C020020730500207205002095
:1051D0005E03002088050020740500205002002096
:1051E0006005002028020020600300203802002013
:1051F0005C030020B0B58EB00AAF3B1C186059604C
:105200009A4B5B785BB29A4AD25C0F23FB181A70F8
:105210000E23FB1800221A700D23FB1800221A70AF
:10522000924B18783B1C5B79191C924A0B1C5B0053
:105230005B189B00D3189B780E22BC1842B25BB25D
:10524000101C191CFEF756FB031C23700E23FB18C1
:1052500000229A560D23FB1887498A5C1A70874BE7
:1052600001225A70864B01225A70804B5B78DAB269
:10527000834B9A70824B0E22BA181278DA703B1C5C
:105280001A687F4B1A617F4BDA683B1C1B68181C3D
:105290009047764B5B785BB2072B46D1794B5B6DC1
:1052A000794A1288D2B20020111C9847754BDC69EC
:1052B0000F23FB181B785BB2181C08F0D7F8021CF0
:1052C0000B1C101C191C0022704B07F085FA021CE5
:1052D0000B1C101C191C06F0FBFA011C0D23FB18FB
:1052E00000229A566A4D00910023019305230293F0
:1052F00000230393012304930023059300230693C3
:1053000000230793634B08930020111C2A1C0023E1
:10531000A0475C4B5B6A5C4A1288D2B20020111C29
:105320009847021C5C4B1A606BE0504B5B785BB299
:10533000062B33D1534B5B6D534A1288D2B20120F6
:10534000111C98474F4BDC690F23FB181B785BB28D
:105350000D22BA18127852B2009301230193082348
:105360000293002303930123049300230593002356
:10537000069300230793474B08930120111C00223A
:105380000123A0473F4B5B6A3F4A1288D2B20120FB
:10539000111C9847021C404B1A6032E0394B5B6D80
:1053A000394A1288D2B20120111C9847354BDC696A
:1053B0000F23FB181B785BB20D22BA18127852B279
:1053C00000930123019308230293002303930123F5
:1053D00004930023059300230693002307932D4B8A
:1053E00008930120111C00220023A047254B5B6A73
:1053F000254A1288D2B20120111C9847021C264B64
:105400001A60254B1A681E4B9A60234B1A681B4B77
:105410005A60224AFA239B00101C191CFCF714FA4C
:105420001E4B181CFCF708F81D4B1B78012253403B
:10543000DBB2002B05D01B4B1B780133DAB2194BC2
:105440001A70104B9B6A104A1288D2B21649081C77
:10545000111C9847154B1B6801221A43134B1A6005
:105460000023181CBD4604B0B0BDC0467C0A002015
:105470009CE7000028000020B4E700007806002028
:1054800064060020A4E900005C03002000408F4077
:10549000A8610000B80B000044060020B005002001
:1054A00069050020480600205C020020AC050020B1
:1054B00080B582B000AF786039607B68002B01D185
:1054C0000323A4E07B681B68002B07D07B685B6824
:1054D000002B03D07B689B68002B01D1032396E04F
:1054E0004D4B7A681A604D4B3A681A604C4B00225B
:1054F0001A704C4B00221A704B4B00221A604B4B17
:1055000000221A704A4B01221A704A4B00221A706C
:10551000494B00221A60494B00221A60484B012275
:105520001A70484B01221A70464B00225A70454BA4
:10553000454A5A60434BFA2292009A60414BFA2244
:10554000D200DA603F4B414A1A613E4B404A5A61F1
:105550003C4B01221A763B4B00225A76394B3D4A8E
:10556000DA61384B202200219954364B07229A8465
:10557000FFF77AFA384A394B101C191CFBF744FF25
:10558000354AFA239B00101C191CFCF75DF9344ABC
:10559000344B101C191CFBF737FF334A334B101CDC
:1055A000191CFBF731FF324A324B101C191CFBF758
:1055B0002BFF314A314B101C191CFBF725FF304BD8
:1055C000304A1A602E4B304A9A602D4B2F4A1A618E
:1055D0002B4B2F4A5A602A4B2E4ADA602E4B1B68FF
:1055E000274A101C98472C4B5B699847031C181CD2
:1055F00002F0F0FA294B01221A70274B9B6D274AC3
:105600001278101C9847244BDB6A98470023181C1B
:10561000BD4602B080BDC046C4050020C8050020BC
:10562000480A002058020020AC050020480600204F
:10563000490600205A0200209C050020A0050020F9
:10564000A40500204C0A0020B80B000088130000BD
:105650007017000008E6D333B0050020252A0000AB
:10566000E80500207D2E0000FC050020312F000001
:1056700010060020093000002C060020C130000078
:10568000CC050020CD1C0000A91E000065290000EB
:105690001D290000C5290000A4E9000059020020CE
:1056A00080B584B000AF021C3960FB1D1A70394B05
:1056B0005A780E23FB181A70374B1978374B1A7823
:1056C0000F23FB188A181A703B68002B01D10323A3
:1056D0005CE0334B1A780E23FB18101C00211A1CB7
:1056E000FEF78EF92F4B1B78002B08D00E23FB18EA
:1056F0001B785BB22C4AD25C3B685A7007E00E23E1
:10570000FB181B785BB2294AD25C3B685A703B6835
:105710005B780F22BA1812789A421BD83B685A78E5
:105720000F23FB181B78D31ADAB23B681A700E23CA
:10573000FB181978FB1D1A784BB2101C191C00229B
:10574000FDF7BEFF031C1A1C01235340DBB2002BE4
:1057500004D001E0092319E0082317E00E23FB1809
:105760001A78FB1D197852B20F23FB181B78081CFE
:10577000111C1A1CFDF7A4FF031C1A1C0123534023
:10578000DBB2002B01D0092300E00023181CBD462A
:1057900004B080BD4C0A0020730500207405002071
:1057A0006A0500205A020020ACE70000A4E70000D0
:1057B00080B584B000AF78600F23FB1800221A7008
:1057C0007B68002B01D1032397E07B681B781A2BA1
:1057D00000D98AE09A004B4BD3181B689F464A4B6E
:1057E0001A787B681A7185E0484B1A787B681A71C1
:1057F00080E0474B1A787B681A717BE0454B1A684A
:105800007B685A6076E0444B1A687B685A6071E0A6
:105810007B68424A5A606DE07B68414A5A6069E0A1
:10582000404B1A787B681A7164E03F4B1A787B68AA
:105830001A715FE07B683D4A5A605BE07B683C4AD6
:1058400004331C3203CA03C354E07B68394A04336F
:105850001C3203CA03C34DE07B68374A5A6049E0F3
:105860007B68364A5A6045E0314B1A7E7B681A7174
:1058700040E02F4B5A687B685A603BE02C4B9A689B
:105880007B685A6036E02A4BDA687B685A6031E000
:10589000274B1A697B685A602CE0254B5A697B6854
:1058A0005A6027E0234B5A787B681A7122E0204B1C
:1058B0005A787B681A711DE01E4B1A787B681A7142
:1058C00018E01B4B1A787B681A7113E01C4B1A689E
:1058D0007B685A600EE01B4B1A687B685A6009E0CF
:1058E000194B1A687B685A6004E00F23FB180222E8
:1058F0001A70C0460F23FB181B78181CBD4604B055
:1059000080BDC04628E8000058020020690500203C
:105910006A0500204C0200205002002028020020CE
:1059200038020020590200205A02002064000020A2
:105930007C0A00204C0A0020700A0020A00A0020E7
:1059400060050020640500205402002080B584B06A
:1059500000AF78600F23FB1800221A707B68002BC1
:1059600001D1032330E19A4B1B680122134001D07F
:10597000012329E17B681B78192B00D91CE19A00CF
:10598000944BD3181B689F467B681A79924B1A7008
:10599000914B1B78012B0ED0022B06D0002B00D090
:1059A0000FE18E4BDB6A984706E08D4B00221A70A0
:1059B000FDF72AFB00E0C04603E17B681A79894BBA
:1059C0001A70FEE07B681A79874B1A70F9E07B68E1
:1059D0005A68864B1A60F4E07B685A68844B1A60F8
:1059E000EFE07B685B68002B08D07B685B68814ACE
:1059F000101C191C102202F011F9E2E00F23FB1811
:105A000003221A70DDE07B685B68002B08D07B689E
:105A10005B68794A101C191C102202F0FFF8D0E0D4
:105A20000F23FB1803221A70CBE07B681A79734BA3
:105A30001A706A4B9B6D714A1278101C9847C0E02F
:105A40007B681A796E4B1A70BBE06E4B7A681C3318
:105A5000043203CA03C3B4E06B4B7A681C330432CC
:105A600003CA03C3ADE07B685B68002B08D07B688A
:105A70005B68664A101C191C022202F0CFF8A0E0F5
:105A80000F23FB1803221A709BE07B685B68002BD6
:105A900008D07B685B685E4A101C191C022202F069
:105AA000BDF88EE00F23FB1803221A7089E07B6893
:105AB0001B79002B08D07B681B790F2B04D87B68DF
:105AC0001A79504B1A767CE00F23FB1803221A70C8
:105AD00077E07B685A684B4B5A6072E07B685A6883
